{
  "contractName": "Color",
  "abi": [
    {
      "inputs": [],
      "stateMutability": "nonpayable",
      "type": "constructor"
    },
    {
      "anonymous": false,
      "inputs": [
        {
          "indexed": true,
          "internalType": "address",
          "name": "owner",
          "type": "address"
        },
        {
          "indexed": true,
          "internalType": "address",
          "name": "approved",
          "type": "address"
        },
        {
          "indexed": true,
          "internalType": "uint256",
          "name": "tokenId",
          "type": "uint256"
        }
      ],
      "name": "Approval",
      "type": "event"
    },
    {
      "anonymous": false,
      "inputs": [
        {
          "indexed": true,
          "internalType": "address",
          "name": "owner",
          "type": "address"
        },
        {
          "indexed": true,
          "internalType": "address",
          "name": "operator",
          "type": "address"
        },
        {
          "indexed": false,
          "internalType": "bool",
          "name": "approved",
          "type": "bool"
        }
      ],
      "name": "ApprovalForAll",
      "type": "event"
    },
    {
      "anonymous": false,
      "inputs": [
        {
          "indexed": false,
          "internalType": "string",
          "name": "val",
          "type": "string"
        }
      ],
      "name": "DataStored",
      "type": "event"
    },
    {
      "anonymous": false,
      "inputs": [
        {
          "indexed": true,
          "internalType": "address",
          "name": "from",
          "type": "address"
        },
        {
          "indexed": true,
          "internalType": "address",
          "name": "to",
          "type": "address"
        },
        {
          "indexed": true,
          "internalType": "uint256",
          "name": "tokenId",
          "type": "uint256"
        }
      ],
      "name": "Transfer",
      "type": "event"
    },
    {
      "inputs": [
        {
          "internalType": "string",
          "name": "",
          "type": "string"
        }
      ],
      "name": "_colorExists",
      "outputs": [
        {
          "internalType": "bool",
          "name": "",
          "type": "bool"
        }
      ],
      "stateMutability": "view",
      "type": "function",
      "constant": true
    },
    {
      "inputs": [
        {
          "internalType": "uint256",
          "name": "",
          "type": "uint256"
        }
      ],
      "name": "aaa_array",
      "outputs": [
        {
          "internalType": "uint256",
          "name": "",
          "type": "uint256"
        }
      ],
      "stateMutability": "view",
      "type": "function",
      "constant": true
    },
    {
      "inputs": [
        {
          "internalType": "address",
          "name": "to",
          "type": "address"
        },
        {
          "internalType": "uint256",
          "name": "tokenId",
          "type": "uint256"
        }
      ],
      "name": "approve",
      "outputs": [],
      "stateMutability": "nonpayable",
      "type": "function"
    },
    {
      "inputs": [
        {
          "internalType": "address",
          "name": "owner",
          "type": "address"
        }
      ],
      "name": "balanceOf",
      "outputs": [
        {
          "internalType": "uint256",
          "name": "",
          "type": "uint256"
        }
      ],
      "stateMutability": "view",
      "type": "function",
      "constant": true
    },
    {
      "inputs": [
        {
          "internalType": "uint256",
          "name": "",
          "type": "uint256"
        }
      ],
      "name": "colorArray",
      "outputs": [
        {
          "internalType": "string",
          "name": "",
          "type": "string"
        }
      ],
      "stateMutability": "view",
      "type": "function",
      "constant": true
    },
    {
      "inputs": [
        {
          "internalType": "uint256",
          "name": "tokenId",
          "type": "uint256"
        }
      ],
      "name": "getApproved",
      "outputs": [
        {
          "internalType": "address",
          "name": "",
          "type": "address"
        }
      ],
      "stateMutability": "view",
      "type": "function",
      "constant": true
    },
    {
      "inputs": [
        {
          "internalType": "address",
          "name": "owner",
          "type": "address"
        },
        {
          "internalType": "address",
          "name": "operator",
          "type": "address"
        }
      ],
      "name": "isApprovedForAll",
      "outputs": [
        {
          "internalType": "bool",
          "name": "",
          "type": "bool"
        }
      ],
      "stateMutability": "view",
      "type": "function",
      "constant": true
    },
    {
      "inputs": [],
      "name": "name",
      "outputs": [
        {
          "internalType": "string",
          "name": "",
          "type": "string"
        }
      ],
      "stateMutability": "view",
      "type": "function",
      "constant": true
    },
    {
      "inputs": [
        {
          "internalType": "uint256",
          "name": "tokenId",
          "type": "uint256"
        }
      ],
      "name": "ownerOf",
      "outputs": [
        {
          "internalType": "address",
          "name": "",
          "type": "address"
        }
      ],
      "stateMutability": "view",
      "type": "function",
      "constant": true
    },
    {
      "inputs": [
        {
          "internalType": "address",
          "name": "from",
          "type": "address"
        },
        {
          "internalType": "address",
          "name": "to",
          "type": "address"
        },
        {
          "internalType": "uint256",
          "name": "tokenId",
          "type": "uint256"
        }
      ],
      "name": "safeTransferFrom",
      "outputs": [],
      "stateMutability": "nonpayable",
      "type": "function"
    },
    {
      "inputs": [
        {
          "internalType": "address",
          "name": "from",
          "type": "address"
        },
        {
          "internalType": "address",
          "name": "to",
          "type": "address"
        },
        {
          "internalType": "uint256",
          "name": "tokenId",
          "type": "uint256"
        },
        {
          "internalType": "bytes",
          "name": "_data",
          "type": "bytes"
        }
      ],
      "name": "safeTransferFrom",
      "outputs": [],
      "stateMutability": "nonpayable",
      "type": "function"
    },
    {
      "inputs": [
        {
          "internalType": "address",
          "name": "operator",
          "type": "address"
        },
        {
          "internalType": "bool",
          "name": "approved",
          "type": "bool"
        }
      ],
      "name": "setApprovalForAll",
      "outputs": [],
      "stateMutability": "nonpayable",
      "type": "function"
    },
    {
      "inputs": [
        {
          "internalType": "bytes4",
          "name": "interfaceId",
          "type": "bytes4"
        }
      ],
      "name": "supportsInterface",
      "outputs": [
        {
          "internalType": "bool",
          "name": "",
          "type": "bool"
        }
      ],
      "stateMutability": "view",
      "type": "function",
      "constant": true
    },
    {
      "inputs": [],
      "name": "symbol",
      "outputs": [
        {
          "internalType": "string",
          "name": "",
          "type": "string"
        }
      ],
      "stateMutability": "view",
      "type": "function",
      "constant": true
    },
    {
      "inputs": [
        {
          "internalType": "uint256",
          "name": "tokenId",
          "type": "uint256"
        }
      ],
      "name": "tokenURI",
      "outputs": [
        {
          "internalType": "string",
          "name": "",
          "type": "string"
        }
      ],
      "stateMutability": "view",
      "type": "function",
      "constant": true
    },
    {
      "inputs": [
        {
          "internalType": "address",
          "name": "from",
          "type": "address"
        },
        {
          "internalType": "address",
          "name": "to",
          "type": "address"
        },
        {
          "internalType": "uint256",
          "name": "tokenId",
          "type": "uint256"
        }
      ],
      "name": "transferFrom",
      "outputs": [],
      "stateMutability": "nonpayable",
      "type": "function"
    },
    {
      "inputs": [],
      "name": "ttt",
      "outputs": [
        {
          "internalType": "string",
          "name": "",
          "type": "string"
        }
      ],
      "stateMutability": "view",
      "type": "function",
      "constant": true
    },
    {
      "inputs": [
        {
          "internalType": "string",
          "name": "_color",
          "type": "string"
        }
      ],
      "name": "mint",
      "outputs": [],
      "stateMutability": "nonpayable",
      "type": "function"
    },
    {
      "inputs": [],
      "name": "setTTT",
      "outputs": [],
      "stateMutability": "nonpayable",
      "type": "function"
    }
  ],
  "bytecode": "0x60806040523480156200001157600080fd5b506040518060400160405280600581526020017f436f6c6f720000000000000000000000000000000000000000000000000000008152506040518060400160405280600581526020017f434f4c4f52000000000000000000000000000000000000000000000000000000815250816000908051906020019062000096929190620000b8565b508060019080519060200190620000af929190620000b8565b505050620001cd565b828054620000c69062000197565b90600052602060002090601f016020900481019282620000ea576000855562000136565b82601f106200010557805160ff191683800117855562000136565b8280016001018555821562000136579182015b828111156200013557825182559160200191906001019062000118565b5b50905062000145919062000149565b5090565b5b80821115620001645760008160009055506001016200014a565b5090565b7f4e487b7100000000000000000000000000000000000000000000000000000000600052602260045260246000fd5b60006002820490506001821680620001b057607f821691505b60208210811415620001c757620001c662000168565b5b50919050565b612bfa80620001dd6000396000f3fe608060405234801561001057600080fd5b50600436106101215760003560e01c80636ab20058116100ad578063c87b56dd11610071578063c87b56dd1461033e578063d59809c51461036e578063d85d3d271461038c578063e985e9c5146103a8578063f4f8641f146103d857610121565b80636ab200581461028857806370a08231146102b857806395d89b41146102e8578063a22cb46514610306578063b88d4fde1461032257610121565b806323b872dd116100f457806323b872dd146101c057806324e84246146101dc57806342842e0e1461020c57806356faedd8146102285780636352211e1461025857610121565b806301ffc9a71461012657806306fdde0314610156578063081812fc14610174578063095ea7b3146101a4575b600080fd5b610140600480360381019061013b9190611a7c565b6103e2565b60405161014d9190611ac4565b60405180910390f35b61015e6104c4565b60405161016b9190611b78565b60405180910390f35b61018e60048036038101906101899190611bd0565b610556565b60405161019b9190611c3e565b60405180910390f35b6101be60048036038101906101b99190611c85565b6105db565b005b6101da60048036038101906101d59190611cc5565b6106f3565b005b6101f660048036038101906101f19190611bd0565b610753565b6040516102039190611d27565b60405180910390f35b61022660048036038101906102219190611cc5565b610777565b005b610242600480360381019061023d9190611bd0565b610797565b60405161024f9190611b78565b60405180910390f35b610272600480360381019061026d9190611bd0565b610843565b60405161027f9190611c3e565b60405180910390f35b6102a2600480360381019061029d9190611e77565b6108f5565b6040516102af9190611ac4565b60405180910390f35b6102d260048036038101906102cd9190611ec0565b61092b565b6040516102df9190611d27565b60405180910390f35b6102f06109e3565b6040516102fd9190611b78565b60405180910390f35b610320600480360381019061031b9190611f19565b610a75565b005b61033c60048036038101906103379190611ffa565b610bf6565b005b61035860048036038101906103539190611bd0565b610c58565b6040516103659190611b78565b60405180910390f35b610376610cff565b6040516103839190611b78565b60405180910390f35b6103a660048036038101906103a19190611e77565b610d8d565b005b6103c260048036038101906103bd919061207d565b610e78565b6040516103cf9190611ac4565b60405180910390f35b6103e0610f0c565b005b60007f80ac58cd000000000000000000000000000000000000000000000000000000007bffffffffffffffffffffffffffffffffffffffffffffffffffffffff1916827bffffffffffffffffffffffffffffffffffffffffffffffffffffffff191614806104ad57507f5b5e139f000000000000000000000000000000000000000000000000000000007bffffffffffffffffffffffffffffffffffffffffffffffffffffffff1916827bffffffffffffffffffffffffffffffffffffffffffffffffffffffff1916145b806104bd57506104bc82610f5a565b5b9050919050565b6060600080546104d3906120ec565b80601f01602080910402602001604051908101604052809291908181526020018280546104ff906120ec565b801561054c5780601f106105215761010080835404028352916020019161054c565b820191906000526020600020905b81548152906001019060200180831161052f57829003601f168201915b5050505050905090565b600061056182610fc4565b6105a0576040517f08c379a000000000000000000000000000000000000000000000000000000000815260040161059790612190565b60405180910390fd5b6004600083815260200190815260200160002060009054906101000a900473ffffffffffffffffffffffffffffffffffffffff169050919050565b60006105e682610843565b90508073ffffffffffffffffffffffffffffffffffffffff168373ffffffffffffffffffffffffffffffffffffffff161415610657576040517f08c379a000000000000000000000000000000000000000000000000000000000815260040161064e90612222565b60405180910390fd5b8073ffffffffffffffffffffffffffffffffffffffff16610676611030565b73ffffffffffffffffffffffffffffffffffffffff1614806106a557506106a48161069f611030565b610e78565b5b6106e4576040517f08c379a00000000000000000000000000000000000000000000000000000000081526004016106db906122b4565b60405180910390fd5b6106ee8383611038565b505050565b6107046106fe611030565b826110f1565b610743576040517f08c379a000000000000000000000000000000000000000000000000000000000815260040161073a90612346565b60405180910390fd5b61074e8383836111cf565b505050565b6007818154811061076357600080fd5b906000526020600020016000915090505481565b61079283838360405180602001604052806000815250610bf6565b505050565b600681815481106107a757600080fd5b9060005260206000200160009150905080546107c2906120ec565b80601f01602080910402602001604051908101604052809291908181526020018280546107ee906120ec565b801561083b5780601f106108105761010080835404028352916020019161083b565b820191906000526020600020905b81548152906001019060200180831161081e57829003601f168201915b505050505081565b6000806002600084815260200190815260200160002060009054906101000a900473ffffffffffffffffffffffffffffffffffffffff169050600073ffffffffffffffffffffffffffffffffffffffff168173ffffffffffffffffffffffffffffffffffffffff1614156108ec576040517f08c379a00000000000000000000000000000000000000000000000000000000081526004016108e3906123d8565b60405180910390fd5b80915050919050565b6008818051602081018201805184825260208301602085012081835280955050505050506000915054906101000a900460ff1681565b60008073ffffffffffffffffffffffffffffffffffffffff168273ffffffffffffffffffffffffffffffffffffffff16141561099c576040517f08c379a00000000000000000000000000000000000000000000000000000000081526004016109939061246a565b60405180910390fd5b600360008373ffffffffffffffffffffffffffffffffffffffff1673ffffffffffffffffffffffffffffffffffffffff168152602001908152602001600020549050919050565b6060600180546109f2906120ec565b80601f0160208091040260200160405190810160405280929190818152602001828054610a1e906120ec565b8015610a6b5780601f10610a4057610100808354040283529160200191610a6b565b820191906000526020600020905b815481529060010190602001808311610a4e57829003601f168201915b5050505050905090565b610a7d611030565b73ffffffffffffffffffffffffffffffffffffffff168273ffffffffffffffffffffffffffffffffffffffff161415610aeb576040517f08c379a0000000000000000000000000000000000000000000000000000000008152600401610ae2906124d6565b60405180910390fd5b8060056000610af8611030565b73ffffffffffffffffffffffffffffffffffffffff1673ffffffffffffffffffffffffffffffffffffffff16815260200190815260200160002060008473ffffffffffffffffffffffffffffffffffffffff1673ffffffffffffffffffffffffffffffffffffffff16815260200190815260200160002060006101000a81548160ff0219169083151502179055508173ffffffffffffffffffffffffffffffffffffffff16610ba5611030565b73ffffffffffffffffffffffffffffffffffffffff167f17307eab39ab6107e8899845ad3d59bd9653f200f220920489ca2b5937696c3183604051610bea9190611ac4565b60405180910390a35050565b610c07610c01611030565b836110f1565b610c46576040517f08c379a0000000000000000000000000000000000000000000000000000000008152600401610c3d90612346565b60405180910390fd5b610c528484848461142b565b50505050565b6060610c6382610fc4565b610ca2576040517f08c379a0000000000000000000000000000000000000000000000000000000008152600401610c9990612568565b60405180910390fd5b6000610cac611487565b90506000815111610ccc5760405180602001604052806000815250610cf7565b80610cd68461149e565b604051602001610ce79291906125c4565b6040516020818303038152906040525b915050919050565b60098054610d0c906120ec565b80601f0160208091040260200160405190810160405280929190818152602001828054610d38906120ec565b8015610d855780601f10610d5a57610100808354040283529160200191610d85565b820191906000526020600020905b815481529060010190602001808311610d6857829003601f168201915b505050505081565b600881604051610d9d91906125e8565b908152602001604051809103902060009054906101000a900460ff1615610dc357600080fd5b600760709080600181540180825580915050600190039060005260206000200160009091909190915055600681908060018154018082558091505060019003906000526020600020016000909190919091509080519060200190610e2892919061196d565b5060006006805490509050610e3d33826115ff565b6001600883604051610e4f91906125e8565b908152602001604051809103902060006101000a81548160ff0219169083151502179055505050565b6000600560008473ffffffffffffffffffffffffffffffffffffffff1673ffffffffffffffffffffffffffffffffffffffff16815260200190815260200160002060008373ffffffffffffffffffffffffffffffffffffffff1673ffffffffffffffffffffffffffffffffffffffff16815260200190815260200160002060009054906101000a900460ff16905092915050565b6040518060400160405280600481526020017f737373730000000000000000000000000000000000000000000000000000000081525060099080519060200190610f5792919061196d565b50565b60007f01ffc9a7000000000000000000000000000000000000000000000000000000007bffffffffffffffffffffffffffffffffffffffffffffffffffffffff1916827bffffffffffffffffffffffffffffffffffffffffffffffffffffffff1916149050919050565b60008073ffffffffffffffffffffffffffffffffffffffff166002600084815260200190815260200160002060009054906101000a900473ffffffffffffffffffffffffffffffffffffffff1673ffffffffffffffffffffffffffffffffffffffff1614159050919050565b600033905090565b816004600083815260200190815260200160002060006101000a81548173ffffffffffffffffffffffffffffffffffffffff021916908373ffffffffffffffffffffffffffffffffffffffff160217905550808273ffffffffffffffffffffffffffffffffffffffff166110ab83610843565b73ffffffffffffffffffffffffffffffffffffffff167f8c5be1e5ebec7d5bd14f71427d1e84f3dd0314c0f7b2291e5b200ac8c7c3b92560405160405180910390a45050565b60006110fc82610fc4565b61113b576040517f08c379a000000000000000000000000000000000000000000000000000000000815260040161113290612671565b60405180910390fd5b600061114683610843565b90508073ffffffffffffffffffffffffffffffffffffffff168473ffffffffffffffffffffffffffffffffffffffff1614806111b557508373ffffffffffffffffffffffffffffffffffffffff1661119d84610556565b73ffffffffffffffffffffffffffffffffffffffff16145b806111c657506111c58185610e78565b5b91505092915050565b8273ffffffffffffffffffffffffffffffffffffffff166111ef82610843565b73ffffffffffffffffffffffffffffffffffffffff1614611245576040517f08c379a000000000000000000000000000000000000000000000000000000000815260040161123c90612703565b60405180910390fd5b600073ffffffffffffffffffffffffffffffffffffffff168273ffffffffffffffffffffffffffffffffffffffff1614156112b5576040517f08c379a00000000000000000000000000000000000000000000000000000000081526004016112ac90612795565b60405180910390fd5b6112c08383836117cd565b6112cb600082611038565b6001600360008573ffffffffffffffffffffffffffffffffffffffff1673ffffffffffffffffffffffffffffffffffffffff168152602001908152602001600020600082825461131b91906127e4565b925050819055506001600360008473ffffffffffffffffffffffffffffffffffffffff1673ffffffffffffffffffffffffffffffffffffffff16815260200190815260200160002060008282546113729190612818565b92505081905550816002600083815260200190815260200160002060006101000a81548173ffffffffffffffffffffffffffffffffffffffff021916908373ffffffffffffffffffffffffffffffffffffffff160217905550808273ffffffffffffffffffffffffffffffffffffffff168473ffffffffffffffffffffffffffffffffffffffff167fddf252ad1be2c89b69c2b068fc378daa952ba7f163c4a11628f55a4df523b3ef60405160405180910390a4505050565b6114368484846111cf565b611442848484846117d2565b611481576040517f08c379a0000000000000000000000000000000000000000000000000000000008152600401611478906128e0565b60405180910390fd5b50505050565b606060405180602001604052806000815250905090565b606060008214156114e6576040518060400160405280600181526020017f300000000000000000000000000000000000000000000000000000000000000081525090506115fa565b600082905060005b6000821461151857808061150190612900565b915050600a826115119190612978565b91506114ee565b60008167ffffffffffffffff81111561153457611533611d4c565b5b6040519080825280601f01601f1916602001820160405280156115665781602001600182028036833780820191505090505b5090505b600085146115f35760018261157f91906127e4565b9150600a8561158e91906129a9565b603061159a9190612818565b60f81b8183815181106115b0576115af6129da565b5b60200101907effffffffffffffffffffffffffffffffffffffffffffffffffffffffffffff1916908160001a905350600a856115ec9190612978565b945061156a565b8093505050505b919050565b600073ffffffffffffffffffffffffffffffffffffffff168273ffffffffffffffffffffffffffffffffffffffff16141561166f576040517f08c379a000000000000000000000000000000000000000000000000000000000815260040161166690612a55565b60405180910390fd5b61167881610fc4565b156116b8576040517f08c379a00000000000000000000000000000000000000000000000000000000081526004016116af90612ac1565b60405180910390fd5b6116c4600083836117cd565b6001600360008473ffffffffffffffffffffffffffffffffffffffff1673ffffffffffffffffffffffffffffffffffffffff16815260200190815260200160002060008282546117149190612818565b92505081905550816002600083815260200190815260200160002060006101000a81548173ffffffffffffffffffffffffffffffffffffffff021916908373ffffffffffffffffffffffffffffffffffffffff160217905550808273ffffffffffffffffffffffffffffffffffffffff16600073ffffffffffffffffffffffffffffffffffffffff167fddf252ad1be2c89b69c2b068fc378daa952ba7f163c4a11628f55a4df523b3ef60405160405180910390a45050565b505050565b60006117f38473ffffffffffffffffffffffffffffffffffffffff1661195a565b1561194d578373ffffffffffffffffffffffffffffffffffffffff1663150b7a0261181c611030565b8786866040518563ffffffff1660e01b815260040161183e9493929190612b36565b6020604051808303816000875af192505050801561187a57506040513d601f19601f820116820180604052508101906118779190612b97565b60015b6118fd573d80600081146118aa576040519150601f19603f3d011682016040523d82523d6000602084013e6118af565b606091505b506000815114156118f5576040517f08c379a00000000000000000000000000000000000000000000000000000000081526004016118ec906128e0565b60405180910390fd5b805181602001fd5b63150b7a0260e01b7bffffffffffffffffffffffffffffffffffffffffffffffffffffffff1916817bffffffffffffffffffffffffffffffffffffffffffffffffffffffff191614915050611952565b600190505b949350505050565b600080823b905060008111915050919050565b828054611979906120ec565b90600052602060002090601f01602090048101928261199b57600085556119e2565b82601f106119b457805160ff19168380011785556119e2565b828001600101855582156119e2579182015b828111156119e15782518255916020019190600101906119c6565b5b5090506119ef91906119f3565b5090565b5b80821115611a0c5760008160009055506001016119f4565b5090565b6000604051905090565b600080fd5b600080fd5b60007fffffffff0000000000000000000000000000000000000000000000000000000082169050919050565b611a5981611a24565b8114611a6457600080fd5b50565b600081359050611a7681611a50565b92915050565b600060208284031215611a9257611a91611a1a565b5b6000611aa084828501611a67565b91505092915050565b60008115159050919050565b611abe81611aa9565b82525050565b6000602082019050611ad96000830184611ab5565b92915050565b600081519050919050565b600082825260208201905092915050565b60005b83811015611b19578082015181840152602081019050611afe565b83811115611b28576000848401525b50505050565b6000601f19601f8301169050919050565b6000611b4a82611adf565b611b548185611aea565b9350611b64818560208601611afb565b611b6d81611b2e565b840191505092915050565b60006020820190508181036000830152611b928184611b3f565b905092915050565b6000819050919050565b611bad81611b9a565b8114611bb857600080fd5b50565b600081359050611bca81611ba4565b92915050565b600060208284031215611be657611be5611a1a565b5b6000611bf484828501611bbb565b91505092915050565b600073ffffffffffffffffffffffffffffffffffffffff82169050919050565b6000611c2882611bfd565b9050919050565b611c3881611c1d565b82525050565b6000602082019050611c536000830184611c2f565b92915050565b611c6281611c1d565b8114611c6d57600080fd5b50565b600081359050611c7f81611c59565b92915050565b60008060408385031215611c9c57611c9b611a1a565b5b6000611caa85828601611c70565b9250506020611cbb85828601611bbb565b9150509250929050565b600080600060608486031215611cde57611cdd611a1a565b5b6000611cec86828701611c70565b9350506020611cfd86828701611c70565b9250506040611d0e86828701611bbb565b9150509250925092565b611d2181611b9a565b82525050565b6000602082019050611d3c6000830184611d18565b92915050565b600080fd5b600080fd5b7f4e487b7100000000000000000000000000000000000000000000000000000000600052604160045260246000fd5b611d8482611b2e565b810181811067ffffffffffffffff82111715611da357611da2611d4c565b5b80604052505050565b6000611db6611a10565b9050611dc28282611d7b565b919050565b600067ffffffffffffffff821115611de257611de1611d4c565b5b611deb82611b2e565b9050602081019050919050565b82818337600083830152505050565b6000611e1a611e1584611dc7565b611dac565b905082815260208101848484011115611e3657611e35611d47565b5b611e41848285611df8565b509392505050565b600082601f830112611e5e57611e5d611d42565b5b8135611e6e848260208601611e07565b91505092915050565b600060208284031215611e8d57611e8c611a1a565b5b600082013567ffffffffffffffff811115611eab57611eaa611a1f565b5b611eb784828501611e49565b91505092915050565b600060208284031215611ed657611ed5611a1a565b5b6000611ee484828501611c70565b91505092915050565b611ef681611aa9565b8114611f0157600080fd5b50565b600081359050611f1381611eed565b92915050565b60008060408385031215611f3057611f2f611a1a565b5b6000611f3e85828601611c70565b9250506020611f4f85828601611f04565b9150509250929050565b600067ffffffffffffffff821115611f7457611f73611d4c565b5b611f7d82611b2e565b9050602081019050919050565b6000611f9d611f9884611f59565b611dac565b905082815260208101848484011115611fb957611fb8611d47565b5b611fc4848285611df8565b509392505050565b600082601f830112611fe157611fe0611d42565b5b8135611ff1848260208601611f8a565b91505092915050565b6000806000806080858703121561201457612013611a1a565b5b600061202287828801611c70565b945050602061203387828801611c70565b935050604061204487828801611bbb565b925050606085013567ffffffffffffffff81111561206557612064611a1f565b5b61207187828801611fcc565b91505092959194509250565b6000806040838503121561209457612093611a1a565b5b60006120a285828601611c70565b92505060206120b385828601611c70565b9150509250929050565b7f4e487b7100000000000000000000000000000000000000000000000000000000600052602260045260246000fd5b6000600282049050600182168061210457607f821691505b60208210811415612118576121176120bd565b5b50919050565b7f4552433732313a20617070726f76656420717565727920666f72206e6f6e657860008201527f697374656e7420746f6b656e0000000000000000000000000000000000000000602082015250565b600061217a602c83611aea565b91506121858261211e565b604082019050919050565b600060208201905081810360008301526121a98161216d565b9050919050565b7f4552433732313a20617070726f76616c20746f2063757272656e74206f776e6560008201527f7200000000000000000000000000000000000000000000000000000000000000602082015250565b600061220c602183611aea565b9150612217826121b0565b604082019050919050565b6000602082019050818103600083015261223b816121ff565b9050919050565b7f4552433732313a20617070726f76652063616c6c6572206973206e6f74206f7760008201527f6e6572206e6f7220617070726f76656420666f7220616c6c0000000000000000602082015250565b600061229e603883611aea565b91506122a982612242565b604082019050919050565b600060208201905081810360008301526122cd81612291565b9050919050565b7f4552433732313a207472616e736665722063616c6c6572206973206e6f74206f60008201527f776e6572206e6f7220617070726f766564000000000000000000000000000000602082015250565b6000612330603183611aea565b915061233b826122d4565b604082019050919050565b6000602082019050818103600083015261235f81612323565b9050919050565b7f4552433732313a206f776e657220717565727920666f72206e6f6e657869737460008201527f656e7420746f6b656e0000000000000000000000000000000000000000000000602082015250565b60006123c2602983611aea565b91506123cd82612366565b604082019050919050565b600060208201905081810360008301526123f1816123b5565b9050919050565b7f4552433732313a2062616c616e636520717565727920666f7220746865207a6560008201527f726f206164647265737300000000000000000000000000000000000000000000602082015250565b6000612454602a83611aea565b915061245f826123f8565b604082019050919050565b6000602082019050818103600083015261248381612447565b9050919050565b7f4552433732313a20617070726f766520746f2063616c6c657200000000000000600082015250565b60006124c0601983611aea565b91506124cb8261248a565b602082019050919050565b600060208201905081810360008301526124ef816124b3565b9050919050565b7f4552433732314d657461646174613a2055524920717565727920666f72206e6f60008201527f6e6578697374656e7420746f6b656e0000000000000000000000000000000000602082015250565b6000612552602f83611aea565b915061255d826124f6565b604082019050919050565b6000602082019050818103600083015261258181612545565b9050919050565b600081905092915050565b600061259e82611adf565b6125a88185612588565b93506125b8818560208601611afb565b80840191505092915050565b60006125d08285612593565b91506125dc8284612593565b91508190509392505050565b60006125f48284612593565b915081905092915050565b7f4552433732313a206f70657261746f7220717565727920666f72206e6f6e657860008201527f697374656e7420746f6b656e0000000000000000000000000000000000000000602082015250565b600061265b602c83611aea565b9150612666826125ff565b604082019050919050565b6000602082019050818103600083015261268a8161264e565b9050919050565b7f4552433732313a207472616e73666572206f6620746f6b656e2074686174206960008201527f73206e6f74206f776e0000000000000000000000000000000000000000000000602082015250565b60006126ed602983611aea565b91506126f882612691565b604082019050919050565b6000602082019050818103600083015261271c816126e0565b9050919050565b7f4552433732313a207472616e7366657220746f20746865207a65726f2061646460008201527f7265737300000000000000000000000000000000000000000000000000000000602082015250565b600061277f602483611aea565b915061278a82612723565b604082019050919050565b600060208201905081810360008301526127ae81612772565b9050919050565b7f4e487b7100000000000000000000000000000000000000000000000000000000600052601160045260246000fd5b60006127ef82611b9a565b91506127fa83611b9a565b92508282101561280d5761280c6127b5565b5b828203905092915050565b600061282382611b9a565b915061282e83611b9a565b9250827fffffffffffffffffffffffffffffffffffffffffffffffffffffffffffffffff03821115612863576128626127b5565b5b828201905092915050565b7f4552433732313a207472616e7366657220746f206e6f6e20455243373231526560008201527f63656976657220696d706c656d656e7465720000000000000000000000000000602082015250565b60006128ca603283611aea565b91506128d58261286e565b604082019050919050565b600060208201905081810360008301526128f9816128bd565b9050919050565b600061290b82611b9a565b91507fffffffffffffffffffffffffffffffffffffffffffffffffffffffffffffffff82141561293e5761293d6127b5565b5b600182019050919050565b7f4e487b7100000000000000000000000000000000000000000000000000000000600052601260045260246000fd5b600061298382611b9a565b915061298e83611b9a565b92508261299e5761299d612949565b5b828204905092915050565b60006129b482611b9a565b91506129bf83611b9a565b9250826129cf576129ce612949565b5b828206905092915050565b7f4e487b7100000000000000000000000000000000000000000000000000000000600052603260045260246000fd5b7f4552433732313a206d696e7420746f20746865207a65726f2061646472657373600082015250565b6000612a3f602083611aea565b9150612a4a82612a09565b602082019050919050565b60006020820190508181036000830152612a6e81612a32565b9050919050565b7f4552433732313a20746f6b656e20616c7265616479206d696e74656400000000600082015250565b6000612aab601c83611aea565b9150612ab682612a75565b602082019050919050565b60006020820190508181036000830152612ada81612a9e565b9050919050565b600081519050919050565b600082825260208201905092915050565b6000612b0882612ae1565b612b128185612aec565b9350612b22818560208601611afb565b612b2b81611b2e565b840191505092915050565b6000608082019050612b4b6000830187611c2f565b612b586020830186611c2f565b612b656040830185611d18565b8181036060830152612b778184612afd565b905095945050505050565b600081519050612b9181611a50565b92915050565b600060208284031215612bad57612bac611a1a565b5b6000612bbb84828501612b82565b9150509291505056fea26469706673582212203541c141b3acc43e23ff9e565d40bd3e13d17643f42ca01f02c199ce0a32840e64736f6c634300080b0033",
  "immutableReferences": {},
  "source": "pragma solidity ^0.8.0;\n\nimport \"@openzeppelin/contracts/token/ERC721/ERC721.sol\";\n\ncontract Color is ERC721{\n  string[] public colorArray;\n  uint[] public aaa_array;\n  mapping(string => bool) public _colorExists;\n  string public ttt;\n\n  event DataStored(string val);\n\n  constructor() ERC721(\"Color\",\"COLOR\") public {\n  }\n\n  // _color example: \"#FFFFFF\"\n  function mint(string memory _color) public {\n    //Require color is unique\n    require(!_colorExists[_color]);\n    aaa_array.push(112);\n\n//    emit DataStored(\"SSSSEEESS emitting.......\");\n\n    colorArray.push(_color);//return i\n    uint _id = colorArray.length;\n    _mint(msg.sender, _id);\n    _colorExists[_color] = true;\n    // Color - track it & add\n    // Call the mint function\n    // Color - track it\n  }\n\n  function setTTT() public {\n    ttt = \"ssss\";\n  }\n\n}",
  "sourcePath": "/Users/ethw/Desktop/NFT-T/starter_kit/src/contracts/Color.sol",
  "compiler": {
    "name": "solc",
    "version": "0.8.11+commit.d7f03943.Emscripten.clang"
  },
  "schemaVersion": "3.4.3",
  "updatedAt": "2021-12-22T02:30:22.779Z",
  "networkType": "ethereum",
  "devdoc": {
    "kind": "dev",
    "methods": {
      "approve(address,uint256)": {
        "details": "See {IERC721-approve}."
      },
      "balanceOf(address)": {
        "details": "See {IERC721-balanceOf}."
      },
      "getApproved(uint256)": {
        "details": "See {IERC721-getApproved}."
      },
      "isApprovedForAll(address,address)": {
        "details": "See {IERC721-isApprovedForAll}."
      },
      "name()": {
        "details": "See {IERC721Metadata-name}."
      },
      "ownerOf(uint256)": {
        "details": "See {IERC721-ownerOf}."
      },
      "safeTransferFrom(address,address,uint256)": {
        "details": "See {IERC721-safeTransferFrom}."
      },
      "safeTransferFrom(address,address,uint256,bytes)": {
        "details": "See {IERC721-safeTransferFrom}."
      },
      "setApprovalForAll(address,bool)": {
        "details": "See {IERC721-setApprovalForAll}."
      },
      "supportsInterface(bytes4)": {
        "details": "See {IERC165-supportsInterface}."
      },
      "symbol()": {
        "details": "See {IERC721Metadata-symbol}."
      },
      "tokenURI(uint256)": {
        "details": "See {IERC721Metadata-tokenURI}."
      },
      "transferFrom(address,address,uint256)": {
        "details": "See {IERC721-transferFrom}."
      }
    },
    "version": 1
  },
  "userdoc": {
    "kind": "user",
    "methods": {},
    "version": 1
  }
}